{"abi":[{"type":"constructor","inputs":[{"name":"_admin","type":"address","internalType":"address"},{"name":"_nftPrice","type":"uint256","internalType":"uint256"},{"name":"_wethAddress","type":"address","internalType":"address"},{"name":"_recipient","type":"address","internalType":"address"},{"name":"baseURI","type":"string","internalType":"string"}],"stateMutability":"nonpayable"},{"type":"function","name":"DEFAULT_ADMIN_ROLE","inputs":[],"outputs":[{"name":"","type":"bytes32","internalType":"bytes32"}],"stateMutability":"view"},{"type":"function","name":"NFT_ADMIN_ROLE","inputs":[],"outputs":[{"name":"","type":"bytes32","internalType":"bytes32"}],"stateMutability":"view"},{"type":"function","name":"addNewAdmin","inputs":[{"name":"_user","type":"address","internalType":"address"}],"outputs":[],"stateMutability":"nonpayable"},{"type":"function","name":"addToWhitelist","inputs":[{"name":"_user","type":"address","internalType":"address"}],"outputs":[],"stateMutability":"nonpayable"},{"type":"function","name":"approve","inputs":[{"name":"to","type":"address","internalType":"address"},{"name":"tokenId","type":"uint256","internalType":"uint256"}],"outputs":[],"stateMutability":"nonpayable"},{"type":"function","name":"balanceOf","inputs":[{"name":"owner","type":"address","internalType":"address"}],"outputs":[{"name":"","type":"uint256","internalType":"uint256"}],"stateMutability":"view"},{"type":"function","name":"decideOnProposal","inputs":[{"name":"_target","type":"address","internalType":"address"},{"name":"_proposalType","type":"uint8","internalType":"enum NFTMinter.ProposalType"},{"name":"approve","type":"bool","internalType":"bool"}],"outputs":[],"stateMutability":"nonpayable"},{"type":"function","name":"developer","inputs":[],"outputs":[{"name":"","type":"address","internalType":"address"}],"stateMutability":"view"},{"type":"function","name":"getApproved","inputs":[{"name":"tokenId","type":"uint256","internalType":"uint256"}],"outputs":[{"name":"","type":"address","internalType":"address"}],"stateMutability":"view"},{"type":"function","name":"getBaseURI","inputs":[],"outputs":[{"name":"","type":"string","internalType":"string"}],"stateMutability":"view"},{"type":"function","name":"getRoleAdmin","inputs":[{"name":"role","type":"bytes32","internalType":"bytes32"}],"outputs":[{"name":"","type":"bytes32","internalType":"bytes32"}],"stateMutability":"view"},{"type":"function","name":"getRoleMember","inputs":[{"name":"role","type":"bytes32","internalType":"bytes32"},{"name":"index","type":"uint256","internalType":"uint256"}],"outputs":[{"name":"","type":"address","internalType":"address"}],"stateMutability":"view"},{"type":"function","name":"getRoleMemberCount","inputs":[{"name":"role","type":"bytes32","internalType":"bytes32"}],"outputs":[{"name":"","type":"uint256","internalType":"uint256"}],"stateMutability":"view"},{"type":"function","name":"grantRole","inputs":[{"name":"role","type":"bytes32","internalType":"bytes32"},{"name":"account","type":"address","internalType":"address"}],"outputs":[],"stateMutability":"nonpayable"},{"type":"function","name":"hasMinted","inputs":[{"name":"","type":"address","internalType":"address"}],"outputs":[{"name":"","type":"bool","internalType":"bool"}],"stateMutability":"view"},{"type":"function","name":"hasRole","inputs":[{"name":"role","type":"bytes32","internalType":"bytes32"},{"name":"account","type":"address","internalType":"address"}],"outputs":[{"name":"","type":"bool","internalType":"bool"}],"stateMutability":"view"},{"type":"function","name":"isApprovedForAll","inputs":[{"name":"owner","type":"address","internalType":"address"},{"name":"operator","type":"address","internalType":"address"}],"outputs":[{"name":"","type":"bool","internalType":"bool"}],"stateMutability":"view"},{"type":"function","name":"name","inputs":[],"outputs":[{"name":"","type":"string","internalType":"string"}],"stateMutability":"view"},{"type":"function","name":"nftPrice","inputs":[],"outputs":[{"name":"","type":"uint256","internalType":"uint256"}],"stateMutability":"view"},{"type":"function","name":"nft_counter","inputs":[],"outputs":[{"name":"","type":"uint256","internalType":"uint256"}],"stateMutability":"view"},{"type":"function","name":"ownerOf","inputs":[{"name":"tokenId","type":"uint256","internalType":"uint256"}],"outputs":[{"name":"","type":"address","internalType":"address"}],"stateMutability":"view"},{"type":"function","name":"pauseContract","inputs":[],"outputs":[],"stateMutability":"nonpayable"},{"type":"function","name":"paused","inputs":[],"outputs":[{"name":"","type":"bool","internalType":"bool"}],"stateMutability":"view"},{"type":"function","name":"proposeAddAdmin","inputs":[{"name":"_newAdmin","type":"address","internalType":"address"}],"outputs":[],"stateMutability":"nonpayable"},{"type":"function","name":"proposeAddUser","inputs":[{"name":"_newUser","type":"address","internalType":"address"}],"outputs":[],"stateMutability":"nonpayable"},{"type":"function","name":"proposeRemoveAdmin","inputs":[{"name":"_removeAdmin","type":"address","internalType":"address"}],"outputs":[],"stateMutability":"nonpayable"},{"type":"function","name":"proposeRemoveUser","inputs":[{"name":"_removeUser","type":"address","internalType":"address"}],"outputs":[],"stateMutability":"nonpayable"},{"type":"function","name":"proposedAddAdminAddresses","inputs":[{"name":"","type":"address","internalType":"address"}],"outputs":[{"name":"","type":"bool","internalType":"bool"}],"stateMutability":"view"},{"type":"function","name":"proposedAddUserAddresses","inputs":[{"name":"","type":"address","internalType":"address"}],"outputs":[{"name":"","type":"bool","internalType":"bool"}],"stateMutability":"view"},{"type":"function","name":"proposedBy","inputs":[{"name":"","type":"address","internalType":"address"}],"outputs":[{"name":"","type":"address","internalType":"address"}],"stateMutability":"view"},{"type":"function","name":"proposedRemoveAddresses","inputs":[{"name":"","type":"address","internalType":"address"}],"outputs":[{"name":"","type":"bool","internalType":"bool"}],"stateMutability":"view"},{"type":"function","name":"proposedRemoveAdminAddresses","inputs":[{"name":"","type":"address","internalType":"address"}],"outputs":[{"name":"","type":"bool","internalType":"bool"}],"stateMutability":"view"},{"type":"function","name":"purchaseNft","inputs":[],"outputs":[],"stateMutability":"nonpayable"},{"type":"function","name":"recipient","inputs":[],"outputs":[{"name":"","type":"address","internalType":"address"}],"stateMutability":"view"},{"type":"function","name":"referralPercentage","inputs":[],"outputs":[{"name":"","type":"uint256","internalType":"uint256"}],"stateMutability":"view"},{"type":"function","name":"referralRewards","inputs":[{"name":"","type":"address","internalType":"address"}],"outputs":[{"name":"","type":"uint256","internalType":"uint256"}],"stateMutability":"view"},{"type":"function","name":"referrer","inputs":[{"name":"","type":"address","internalType":"address"}],"outputs":[{"name":"","type":"address","internalType":"address"}],"stateMutability":"view"},{"type":"function","name":"removeAdmin","inputs":[{"name":"_user","type":"address","internalType":"address"}],"outputs":[],"stateMutability":"nonpayable"},{"type":"function","name":"removeFromWhitelist","inputs":[{"name":"_user","type":"address","internalType":"address"}],"outputs":[],"stateMutability":"nonpayable"},{"type":"function","name":"renounceRole","inputs":[{"name":"role","type":"bytes32","internalType":"bytes32"},{"name":"callerConfirmation","type":"address","internalType":"address"}],"outputs":[],"stateMutability":"nonpayable"},{"type":"function","name":"revokeRole","inputs":[{"name":"role","type":"bytes32","internalType":"bytes32"},{"name":"account","type":"address","internalType":"address"}],"outputs":[],"stateMutability":"nonpayable"},{"type":"function","name":"safeMint","inputs":[{"name":"to","type":"address","internalType":"address"}],"outputs":[],"stateMutability":"nonpayable"},{"type":"function","name":"safeTransferFrom","inputs":[{"name":"from","type":"address","internalType":"address"},{"name":"to","type":"address","internalType":"address"},{"name":"tokenId","type":"uint256","internalType":"uint256"}],"outputs":[],"stateMutability":"nonpayable"},{"type":"function","name":"safeTransferFrom","inputs":[{"name":"from","type":"address","internalType":"address"},{"name":"to","type":"address","internalType":"address"},{"name":"tokenId","type":"uint256","internalType":"uint256"},{"name":"data","type":"bytes","internalType":"bytes"}],"outputs":[],"stateMutability":"nonpayable"},{"type":"function","name":"setApprovalForAll","inputs":[{"name":"operator","type":"address","internalType":"address"},{"name":"approved","type":"bool","internalType":"bool"}],"outputs":[],"stateMutability":"nonpayable"},{"type":"function","name":"setBaseURI","inputs":[{"name":"baseURI","type":"string","internalType":"string"}],"outputs":[],"stateMutability":"nonpayable"},{"type":"function","name":"setNftPrice","inputs":[{"name":"_price","type":"uint256","internalType":"uint256"}],"outputs":[],"stateMutability":"nonpayable"},{"type":"function","name":"setRecipient","inputs":[{"name":"_recipient","type":"address","internalType":"address"}],"outputs":[],"stateMutability":"nonpayable"},{"type":"function","name":"setReferralPercentage","inputs":[{"name":"_percentage","type":"uint256","internalType":"uint256"}],"outputs":[],"stateMutability":"nonpayable"},{"type":"function","name":"supportsInterface","inputs":[{"name":"interfaceId","type":"bytes4","internalType":"bytes4"}],"outputs":[{"name":"","type":"bool","internalType":"bool"}],"stateMutability":"view"},{"type":"function","name":"symbol","inputs":[],"outputs":[{"name":"","type":"string","internalType":"string"}],"stateMutability":"view"},{"type":"function","name":"tokenURI","inputs":[{"name":"tokenId","type":"uint256","internalType":"uint256"}],"outputs":[{"name":"","type":"string","internalType":"string"}],"stateMutability":"view"},{"type":"function","name":"transferFrom","inputs":[{"name":"from","type":"address","internalType":"address"},{"name":"to","type":"address","internalType":"address"},{"name":"tokenId","type":"uint256","internalType":"uint256"}],"outputs":[],"stateMutability":"nonpayable"},{"type":"function","name":"unpauseContract","inputs":[],"outputs":[],"stateMutability":"nonpayable"},{"type":"function","name":"weth","inputs":[],"outputs":[{"name":"","type":"address","internalType":"contract IERC20"}],"stateMutability":"view"},{"type":"function","name":"whitelist","inputs":[{"name":"","type":"address","internalType":"address"}],"outputs":[{"name":"","type":"bool","internalType":"bool"}],"stateMutability":"view"},{"type":"function","name":"withdrawReferralRewards","inputs":[],"outputs":[],"stateMutability":"nonpayable"},{"type":"event","name":"AdminProposed","inputs":[{"name":"proposer","type":"address","indexed":true,"internalType":"address"},{"name":"newAdmin","type":"address","indexed":true,"internalType":"address"}],"anonymous":false},{"type":"event","name":"AdminRemovalProposed","inputs":[{"name":"proposer","type":"address","indexed":true,"internalType":"address"},{"name":"adminToRemove","type":"address","indexed":true,"internalType":"address"}],"anonymous":false},{"type":"event","name":"Approval","inputs":[{"name":"owner","type":"address","indexed":true,"internalType":"address"},{"name":"approved","type":"address","indexed":true,"internalType":"address"},{"name":"tokenId","type":"uint256","indexed":true,"internalType":"uint256"}],"anonymous":false},{"type":"event","name":"ApprovalForAll","inputs":[{"name":"owner","type":"address","indexed":true,"internalType":"address"},{"name":"operator","type":"address","indexed":true,"internalType":"address"},{"name":"approved","type":"bool","indexed":false,"internalType":"bool"}],"anonymous":false},{"type":"event","name":"NFTPurchased","inputs":[{"name":"buyer","type":"address","indexed":true,"internalType":"address"},{"name":"nftId","type":"uint256","indexed":false,"internalType":"uint256"},{"name":"price","type":"uint256","indexed":false,"internalType":"uint256"},{"name":"referrer","type":"address","indexed":false,"internalType":"address"},{"name":"referralReward","type":"uint256","indexed":false,"internalType":"uint256"}],"anonymous":false},{"type":"event","name":"NftPriceSet","inputs":[{"name":"newPrice","type":"uint256","indexed":false,"internalType":"uint256"}],"anonymous":false},{"type":"event","name":"Paused","inputs":[{"name":"account","type":"address","indexed":false,"internalType":"address"}],"anonymous":false},{"type":"event","name":"ProposalDecision","inputs":[{"name":"target","type":"address","indexed":true,"internalType":"address"},{"name":"proposalType","type":"uint8","indexed":false,"internalType":"enum NFTMinter.ProposalType"},{"name":"approved","type":"bool","indexed":false,"internalType":"bool"}],"anonymous":false},{"type":"event","name":"RecipientSet","inputs":[{"name":"newRecipient","type":"address","indexed":true,"internalType":"address"}],"anonymous":false},{"type":"event","name":"ReferralPercentageSet","inputs":[{"name":"newPercentage","type":"uint256","indexed":false,"internalType":"uint256"}],"anonymous":false},{"type":"event","name":"ReferralRewardWithdrawn","inputs":[{"name":"user","type":"address","indexed":true,"internalType":"address"},{"name":"amount","type":"uint256","indexed":false,"internalType":"uint256"}],"anonymous":false},{"type":"event","name":"RoleAdminChanged","inputs":[{"name":"role","type":"bytes32","indexed":true,"internalType":"bytes32"},{"name":"previousAdminRole","type":"bytes32","indexed":true,"internalType":"bytes32"},{"name":"newAdminRole","type":"bytes32","indexed":true,"internalType":"bytes32"}],"anonymous":false},{"type":"event","name":"RoleGranted","inputs":[{"name":"role","type":"bytes32","indexed":true,"internalType":"bytes32"},{"name":"account","type":"address","indexed":true,"internalType":"address"},{"name":"sender","type":"address","indexed":true,"internalType":"address"}],"anonymous":false},{"type":"event","name":"RoleRevoked","inputs":[{"name":"role","type":"bytes32","indexed":true,"internalType":"bytes32"},{"name":"account","type":"address","indexed":true,"internalType":"address"},{"name":"sender","type":"address","indexed":true,"internalType":"address"}],"anonymous":false},{"type":"event","name":"Transfer","inputs":[{"name":"from","type":"address","indexed":true,"internalType":"address"},{"name":"to","type":"address","indexed":true,"internalType":"address"},{"name":"tokenId","type":"uint256","indexed":true,"internalType":"uint256"}],"anonymous":false},{"type":"event","name":"Unpaused","inputs":[{"name":"account","type":"address","indexed":false,"internalType":"address"}],"anonymous":false},{"type":"event","name":"UserProposed","inputs":[{"name":"proposer","type":"address","indexed":true,"internalType":"address"},{"name":"newUser","type":"address","indexed":true,"internalType":"address"}],"anonymous":false},{"type":"event","name":"UserRemoved","inputs":[{"name":"admin","type":"address","indexed":true,"internalType":"address"},{"name":"removedUser","type":"address","indexed":true,"internalType":"address"}],"anonymous":false},{"type":"error","name":"AccessControlBadConfirmation","inputs":[]},{"type":"error","name":"AccessControlUnauthorizedAccount","inputs":[{"name":"account","type":"address","internalType":"address"},{"name":"neededRole","type":"bytes32","internalType":"bytes32"}]},{"type":"error","name":"AddressEmptyCode","inputs":[{"name":"target","type":"address","internalType":"address"}]},{"type":"error","name":"AddressInsufficientBalance","inputs":[{"name":"account","type":"address","internalType":"address"}]},{"type":"error","name":"ERC721IncorrectOwner","inputs":[{"name":"sender","type":"address","internalType":"address"},{"name":"tokenId","type":"uint256","internalType":"uint256"},{"name":"owner","type":"address","internalType":"address"}]},{"type":"error","name":"ERC721InsufficientApproval","inputs":[{"name":"operator","type":"address","internalType":"address"},{"name":"tokenId","type":"uint256","internalType":"uint256"}]},{"type":"error","name":"ERC721InvalidApprover","inputs":[{"name":"approver","type":"address","internalType":"address"}]},{"type":"error","name":"ERC721InvalidOperator","inputs":[{"name":"operator","type":"address","internalType":"address"}]},{"type":"error","name":"ERC721InvalidOwner","inputs":[{"name":"owner","type":"address","internalType":"address"}]},{"type":"error","name":"ERC721InvalidReceiver","inputs":[{"name":"receiver","type":"address","internalType":"address"}]},{"type":"error","name":"ERC721InvalidSender","inputs":[{"name":"sender","type":"address","internalType":"address"}]},{"type":"error","name":"ERC721NonexistentToken","inputs":[{"name":"tokenId","type":"uint256","internalType":"uint256"}]},{"type":"error","name":"EnforcedPause","inputs":[]},{"type":"error","name":"ExpectedPause","inputs":[]},{"type":"error","name":"FailedInnerCall","inputs":[]},{"type":"error","name":"SafeERC20FailedOperation","inputs":[{"name":"token","type":"address","internalType":"address"}]}],"bytecode":{"object":"0x6080604052600980546001600160a01b03191673ce7a6f6a800a632341061c007faa3c4068d3f72e1790556000601255600560175534801561004057600080fd5b5060405161369938038061369983398101604081905261005f916102d7565b604051806040016040528060048152602001635765526160e01b815250604051806040016040528060038152602001622bb2a960e91b81525081600090816100a79190610467565b5060016100b48282610467565b50506008805460ff19169055506100cc600086610168565b506100f77fd4dd364b99254967de7b77fa79c0f7835d1d5ebdb779edee0c386bda7d2cc48286610168565b506013849055601480546001600160a01b0319166001600160a01b038581169190911790915560088054610100600160a81b0319166101008584160217905585166000908152600b60205260409020805460ff19166001179055600a61015d8282610467565b505050505050610526565b60008061017584846101a0565b90508015610197576000848152600760205260409020610195908461024e565b505b90505b92915050565b60008281526006602090815260408083206001600160a01b038516845290915281205460ff166102465760008381526006602090815260408083206001600160a01b03861684529091529020805460ff191660011790556101fe3390565b6001600160a01b0316826001600160a01b0316847f2f8788117e7eff1d82e926ec794901d17c78024a50270940304540a733656f0d60405160405180910390a450600161019a565b50600061019a565b6000610197836001600160a01b03841660008181526001830160205260408120546102465750815460018181018455600084815260208082209093018490558454848252828601909352604090209190915561019a565b80516001600160a01b03811681146102bc57600080fd5b919050565b634e487b7160e01b600052604160045260246000fd5b600080600080600060a086880312156102ef57600080fd5b6102f8866102a5565b9450602080870151945061030e604088016102a5565b935061031c606088016102a5565b60808801519093506001600160401b038082111561033957600080fd5b818901915089601f83011261034d57600080fd5b81518181111561035f5761035f6102c1565b604051601f8201601f19908116603f01168101908382118183101715610387576103876102c1565b816040528281528c8684870101111561039f57600080fd5b600093505b828410156103c157848401860151818501870152928501926103a4565b60008684830101528096505050505050509295509295909350565b600181811c908216806103f057607f821691505b60208210810361041057634e487b7160e01b600052602260045260246000fd5b50919050565b601f821115610462576000816000526020600020601f850160051c8101602086101561043f5750805b601f850160051c820191505b8181101561045e5782815560010161044b565b5050505b505050565b81516001600160401b03811115610480576104806102c1565b6104948161048e84546103dc565b84610416565b602080601f8311600181146104c957600084156104b15750858301515b600019600386901b1c1916600185901b17855561045e565b600085815260208120601f198616915b828110156104f8578886015182559484019460019091019084016104d9565b50858210156105165787850151600019600388901b60f8161c191681555b5050505050600190811b01905550565b613164806105356000396000f3fe608060405234801561001057600080fd5b50600436106103835760003560e01c80636352211e116101de578063a217fddf1161010f578063ca4b208b116100ad578063d7ab256e1161007c578063d7ab256e146107ee578063e43252d714610811578063e985e9c514610824578063faf6ad131461083757600080fd5b8063ca4b208b146107a2578063cffb80c1146107b5578063d2e5a2a3146107c8578063d547741f146107db57600080fd5b8063b88d4fde116100e9578063b88d4fde14610746578063c4be1f9714610759578063c87b56dd1461077c578063ca15c8731461078f57600080fd5b8063a217fddf14610723578063a22cb4651461072b578063b33712c51461073e57600080fd5b80638fb02d991161017c57806395d89b411161015657806395d89b41146106dc57806396ea8b9c146106e45780639b19251a146106ed578063a0311bd41461071057600080fd5b80638fb02d99146106a15780639010d07c146106b657806391d14854146106c957600080fd5b8063714c5398116101b8578063714c539814610660578063749511b1146106685780637d9a7a4c1461067b5780638ab1d6811461068e57600080fd5b80636352211e1461062257806366d003ac1461063557806370a082311461064d57600080fd5b80632f2ff15d116102b857806341bb9eeb116102565780634b16ffee116102305780634b16ffee146105db57806353aaa63b146105e457806355f804b3146106045780635c975abb1461061757600080fd5b806341bb9eeb146105ad57806342842e0e146105c0578063439766ce146105d357600080fd5b806338e21cce1161029257806338e21cce146105515780633bbed4a0146105745780633fc8cef31461058757806340d097c31461059a57600080fd5b80632f2ff15d1461051857806332b37e831461052b57806336568abe1461053e57600080fd5b80631785f53c1161032557806323b872dd116102ff57806323b872dd14610496578063248a9ca3146104a95780632b177739146104cc5780632cf003c2146104ef57600080fd5b80631785f53c146104525780631fb9f6fa146104655780632365eec61461046d57600080fd5b8063081812fc11610361578063081812fc146103e8578063095ea7b3146104135780630a1b10e1146104285780630d39fc811461043b57600080fd5b806301ffc9a71461038857806302c28f4f146103b057806306fdde03146103d3575b600080fd5b61039b6103963660046129ef565b61083f565b60405190151581526020015b60405180910390f35b61039b6103be366004612a28565b600d6020526000908152604090205460ff1681565b6103db61085f565b6040516103a79190612a93565b6103fb6103f6366004612aa6565b6108f1565b6040516001600160a01b0390911681526020016103a7565b610426610421366004612abf565b61091a565b005b610426610436366004612a28565b610929565b61044460135481565b6040519081526020016103a7565b610426610460366004612a28565b6109ab565b6104266109ea565b6103fb61047b366004612a28565b6011602052600090815260409020546001600160a01b031681565b6104266104a4366004612ae9565b610aa9565b6104446104b7366004612aa6565b60009081526006602052604090206001015490565b61039b6104da366004612a28565b600f6020526000908152604090205460ff1681565b6103fb6104fd366004612a28565b6015602052600090815260409020546001600160a01b031681565b610426610526366004612b25565b610b34565b610426610539366004612a28565b610b59565b61042661054c366004612b25565b610c50565b61039b61055f366004612a28565b600c6020526000908152604090205460ff1681565b610426610582366004612a28565b610c88565b6014546103fb906001600160a01b031681565b6104266105a8366004612a28565b610d01565b6104266105bb366004612a28565b610dc1565b6104266105ce366004612ae9565b610ec8565b610426610ee3565b61044460125481565b6104446105f2366004612a28565b60166020526000908152604090205481565b610426610612366004612bdd565b610f21565b60085460ff1661039b565b6103fb610630366004612aa6565b610f54565b6008546103fb9061010090046001600160a01b031681565b61044461065b366004612a28565b610f5f565b6103db610fa7565b610426610676366004612a28565b610fb6565b610426610689366004612aa6565b6110a6565b61042661069c366004612a28565b611109565b61044460008051602061310f83398151915281565b6103fb6106c4366004612c26565b61117a565b61039b6106d7366004612b25565b611199565b6103db6111c4565b61044460175481565b61039b6106fb366004612a28565b600b6020526000908152604090205460ff1681565b61042661071e366004612aa6565b6111d3565b610444600081565b610426610739366004612c56565b61122f565b61042661123a565b610426610754366004612c8d565b611276565b61039b610767366004612a28565b600e6020526000908152604090205460ff1681565b6103db61078a366004612aa6565b61128d565b61044461079d366004612aa6565b6112f4565b6009546103fb906001600160a01b031681565b6104266107c3366004612a28565b61130b565b6104266107d6366004612d09565b6113f0565b6104266107e9366004612b25565b61176b565b61039b6107fc366004612a28565b60106020526000908152604090205460ff1681565b61042661081f366004612a28565b611790565b61039b610832366004612d56565b611804565b610426611832565b600061084a82611c09565b80610859575061085982611c59565b92915050565b60606000805461086e90612d80565b80601f016020809104026020016040519081016040528092919081815260200182805461089a90612d80565b80156108e75780601f106108bc576101008083540402835291602001916108e7565b820191906000526020600020905b8154815290600101906020018083116108ca57829003601f168201915b5050505050905090565b60006108fc82611c7e565b506000828152600460205260409020546001600160a01b0316610859565b610925828233611cb7565b5050565b610934600033611199565b6109595760405162461bcd60e51b815260040161095090612dba565b60405180910390fd5b61097160008051602061310f83398151915282611cc4565b506040516001600160a01b0382169033907ffd22260ca7b3d2a5f6332770491ab546b6235bc73909c334f5e304d2fae455b190600090a350565b6109b6600033611199565b6109d25760405162461bcd60e51b815260040161095090612dba565b61097160008051602061310f83398151915282611cf9565b6109f2611d26565b3360009081526016602052604090205480610a485760405162461bcd60e51b81526020600482015260166024820152754e6f207265776172647320746f20776974686472617760501b6044820152606401610950565b33600081815260166020526040812055601454610a71916001600160a01b039091169083611d4a565b60405181815233907f11b92d201b630fa1e3be9af7551da6822eedc4029b693211d743cf1bf6ca96969060200160405180910390a250565b6001600160a01b038216610ad357604051633250574960e11b815260006004820152602401610950565b6000610ae0838333611da9565b9050836001600160a01b0316816001600160a01b031614610b2e576040516364283d7b60e01b81526001600160a01b0380861660048301526024820184905282166044820152606401610950565b50505050565b600082815260066020526040902060010154610b4f81611ea2565b610b2e8383611cc4565b610b7160008051602061310f83398151915233611199565b610b8d5760405162461bcd60e51b815260040161095090612e00565b6001600160a01b0381166000908152600b602052604090205460ff16610c035760405162461bcd60e51b815260206004820152602560248201527f50726f706f7365642075736572206973206e6f7420696e207468652077686974604482015264195b1a5cdd60da1b6064820152608401610950565b6001600160a01b0381166000818152600e6020526040808220805460ff191660011790555133917f7188704ef61ea2b92e5eae4c5dfcd5809187b7c82614d4c2c6f3febcf1427b1a91a350565b6001600160a01b0381163314610c795760405163334bd91960e11b815260040160405180910390fd5b610c838282611cf9565b505050565b610c93600033611199565b610caf5760405162461bcd60e51b815260040161095090612dba565b60088054610100600160a81b0319166101006001600160a01b038416908102919091179091556040517f9d900d71c28433348acb1bec780a061608a96b149370abce77fd54ba2d47940190600090a250565b610d0c600033611199565b610d285760405162461bcd60e51b815260040161095090612dba565b610d30611d26565b6001600160a01b0381166000908152600b602052604090205460ff16610d985760405162461bcd60e51b815260206004820152601f60248201527f41646472657373206973206e6f7420696e207468652077686974656c697374006044820152606401610950565b600160126000828254610dab9190612e5b565b92505081905550610dbe81601254611eac565b50565b610dd960008051602061310f83398151915233611199565b610df55760405162461bcd60e51b815260040161095090612e00565b6001600160a01b0381166000908152600b602052604090205460ff1615610e5e5760405162461bcd60e51b815260206004820181905260248201527f5573657220697320616c726561647920696e207468652077686974656c6973746044820152606401610950565b6001600160a01b038116600081815260116020908152604080832080546001600160a01b03191633908117909155600d909252808320805460ff191660011790555190917f93c3c89c5eedc2f437f01e6fd7ab57762a7d62e5fb8c3493bbf602d2357a57d091a350565b610c8383838360405180602001604052806000815250611276565b610efb60008051602061310f83398151915233611199565b610f175760405162461bcd60e51b815260040161095090612e00565b610f1f611ec6565b565b610f2c600033611199565b610f485760405162461bcd60e51b815260040161095090612dba565b600a6109258282612ebe565b600061085982611c7e565b60006001600160a01b038216610f8b576040516322718ad960e21b815260006004820152602401610950565b506001600160a01b031660009081526003602052604090205490565b6060610fb1611f20565b905090565b610fce60008051602061310f83398151915233611199565b610fea5760405162461bcd60e51b815260040161095090612e00565b61100260008051602061310f83398151915282611199565b156110595760405162461bcd60e51b815260206004820152602160248201527f50726f706f736564207573657220697320616c726561647920616e2061646d696044820152603760f91b6064820152608401610950565b6001600160a01b0381166000818152600f6020526040808220805460ff191660011790555133917ffd22260ca7b3d2a5f6332770491ab546b6235bc73909c334f5e304d2fae455b191a350565b6110b1600033611199565b6110cd5760405162461bcd60e51b815260040161095090612dba565b60138190556040518181527f70b302aeb0e211b389852139b31ce677068ee40211c1bd48b0eb4a16f1ce3813906020015b60405180910390a150565b611114600033611199565b6111305760405162461bcd60e51b815260040161095090612dba565b6001600160a01b0381166000818152600b6020526040808220805460ff191690555133917f7188704ef61ea2b92e5eae4c5dfcd5809187b7c82614d4c2c6f3febcf1427b1a91a350565b60008281526007602052604081206111929083611f2f565b9392505050565b60009182526006602090815260408084206001600160a01b0393909316845291905290205460ff1690565b60606001805461086e90612d80565b6111de600033611199565b6111fa5760405162461bcd60e51b815260040161095090612dba565b60178190556040518181527fb23bf197c08eba82a8b061189ea1c88c8173a1ed254f5f34c58e5b4314827a05906020016110fe565b610925338383611f3b565b61125260008051602061310f83398151915233611199565b61126e5760405162461bcd60e51b815260040161095090612e00565b610f1f611fda565b611281848484610aa9565b610b2e84848484612013565b606061129882611c7e565b5060006112a3611f20565b905060008151116112c35760405180602001604052806000815250611192565b806112cd8461213c565b6040516020016112de929190612f7e565b6040516020818303038152906040529392505050565b6000818152600760205260408120610859906121cf565b61132360008051602061310f83398151915233611199565b61133f5760405162461bcd60e51b815260040161095090612e00565b61135760008051602061310f83398151915282611199565b6113a35760405162461bcd60e51b815260206004820152601d60248201527f50726f706f7365642075736572206973206e6f7420616e2061646d696e0000006044820152606401610950565b6001600160a01b038116600081815260106020526040808220805460ff191660011790555133917ff4891aa5d1c690a83cdc3433308ce1266775d8cf089b6b2567907cfe320a919b91a350565b6113fb600033611199565b6114175760405162461bcd60e51b815260040161095090612dba565b600082600381111561142b5761142b612fad565b036114ce576001600160a01b0383166000908152600d602052604090205460ff166114985760405162461bcd60e51b815260206004820152601760248201527f4e6f2070726f706f73616c20746f2061646420757365720000000000000000006044820152606401610950565b80156114c9576001600160a01b0383166000908152600b60209081526040909120805460ff19166001179055601190525b611723565b60018260038111156114e2576114e2612fad565b0361159b576001600160a01b0383166000908152600e602052604090205460ff1661154f5760405162461bcd60e51b815260206004820152601a60248201527f4e6f2070726f706f73616c20746f2072656d6f766520757365720000000000006044820152606401610950565b8015611576576001600160a01b0383166000908152600b60205260409020805460ff191690555b6001600160a01b0383166000908152600e60205260409020805460ff19169055611723565b60028260038111156115af576115af612fad565b03611661576001600160a01b0383166000908152600f602052604090205460ff1661161c5760405162461bcd60e51b815260206004820152601860248201527f4e6f2070726f706f73616c20746f206164642061646d696e00000000000000006044820152606401610950565b801561163c5761163a60008051602061310f83398151915284611cc4565b505b6001600160a01b0383166000908152600f60205260409020805460ff19169055611723565b600382600381111561167557611675612fad565b03611723576001600160a01b03831660009081526010602052604090205460ff166116e25760405162461bcd60e51b815260206004820152601b60248201527f4e6f2070726f706f73616c20746f2072656d6f76652061646d696e00000000006044820152606401610950565b80156117025761170060008051602061310f83398151915284611cf9565b505b6001600160a01b0383166000908152601060205260409020805460ff191690555b826001600160a01b03167f325f54653c398b02a3b1fa21c49ba6753aa5fabdfb56ab0dc73ea37273e6e622838360405161175e929190612fc3565b60405180910390a2505050565b60008281526006602052604090206001015461178681611ea2565b610b2e8383611cf9565b61179b600033611199565b6117b75760405162461bcd60e51b815260040161095090612dba565b6001600160a01b0381166000818152600b6020526040808220805460ff191660011790555133917f93c3c89c5eedc2f437f01e6fd7ab57762a7d62e5fb8c3493bbf602d2357a57d091a350565b6001600160a01b03918216600090815260056020908152604080832093909416825291909152205460ff1690565b61183a611d26565b336000908152600b602052604090205460ff166118995760405162461bcd60e51b815260206004820152601f60248201527f41646472657373206973206e6f7420696e207468652077686974656c697374006044820152606401610950565b6013546014546040516370a0823160e01b81523360048201526001600160a01b03909116906370a0823190602401602060405180830381865afa1580156118e4573d6000803e3d6000fd5b505050506040513d601f19601f820116820180604052508101906119089190612ff4565b10156119565760405162461bcd60e51b815260206004820152601960248201527f496e73756666696369656e7420574554482062616c616e6365000000000000006044820152606401610950565b336000908152600c602052604090205460ff16156119c05760405162461bcd60e51b815260206004820152602160248201527f416464726573732068617320616c7265616479206d696e74656420616e204e466044820152601560fa1b6064820152608401610950565b336000908152601160205260409020546001600160a01b0316158015906119fd5750336000908152601560205260409020546001600160a01b0316155b15611a525733600090815260116020818152604080842080546015845282862080546001600160a01b039092166001600160a01b0319928316179055600d845291909420805460ff1916905591905281541690555b336000908152601560205260408120546001600160a01b031615611acc576064601754601354611a82919061300d565b611a8c9190613024565b336000908152601560209081526040808320546001600160a01b031683526016909152812080549293508392909190611ac6908490612e5b565b90915550505b600060646013546002611adf919061300d565b611ae99190613024565b905060008183601354611afc9190613046565b611b069190613046565b600854601454919250611b2e916001600160a01b0390811691339161010090910416846121d9565b8215611b4c57601454611b4c906001600160a01b03163330866121d9565b600954601454611b6b916001600160a01b0391821691339116856121d9565b600160126000828254611b7e9190612e5b565b92505081905550611b9133601254611eac565b336000818152600c60209081526040808320805460ff191660011790556012546013546015845293829020548251918252928101939093526001600160a01b0390911690820152606081018590527f988623215d0b0ff926872b775762534f04faf5143e00b0b9e1ba603bf5c793ea9060800161175e565b60006001600160e01b031982166380ac58cd60e01b1480611c3a57506001600160e01b03198216635b5e139f60e01b145b8061085957506301ffc9a760e01b6001600160e01b0319831614610859565b60006001600160e01b03198216635a05180f60e01b1480610859575061085982612212565b6000818152600260205260408120546001600160a01b03168061085957604051637e27328960e01b815260048101849052602401610950565b610c838383836001612237565b600080611cd1848461233d565b90508015611192576000848152600760205260409020611cf190846123d1565b509392505050565b600080611d0684846123e6565b90508015611192576000848152600760205260409020611cf19084612453565b60085460ff1615610f1f5760405163d93c066560e01b815260040160405180910390fd5b6040516001600160a01b03838116602483015260448201839052610c8391859182169063a9059cbb906064015b604051602081830303815290604052915060e01b6020820180516001600160e01b038381831617835250505050612468565b6000828152600260205260408120546001600160a01b0390811690831615611dd657611dd68184866124cb565b6001600160a01b03811615611e1457611df3600085600080612237565b6001600160a01b038116600090815260036020526040902080546000190190555b6001600160a01b03851615611e43576001600160a01b0385166000908152600360205260409020805460010190555b60008481526002602052604080822080546001600160a01b0319166001600160a01b0389811691821790925591518793918516917fddf252ad1be2c89b69c2b068fc378daa952ba7f163c4a11628f55a4df523b3ef91a4949350505050565b610dbe813361252f565b610925828260405180602001604052806000815250612568565b611ece611d26565b6008805460ff191660011790557f62e78cea01bee320cd4e420270b5ea74000d11b0c9f74754ebdbfc544b05a258611f033390565b6040516001600160a01b03909116815260200160405180910390a1565b6060600a805461086e90612d80565b6000611192838361257f565b6001600160a01b038216611f6d57604051630b61174360e31b81526001600160a01b0383166004820152602401610950565b6001600160a01b03838116600081815260056020908152604080832094871680845294825291829020805460ff191686151590811790915591519182527f17307eab39ab6107e8899845ad3d59bd9653f200f220920489ca2b5937696c31910160405180910390a3505050565b611fe26125a9565b6008805460ff191690557f5db9ee0a495bf2e6ff9c91a7834c1ba4fdd244a5e8aa4e537bd38aeae4b073aa33611f03565b6001600160a01b0383163b15610b2e57604051630a85bd0160e11b81526001600160a01b0384169063150b7a0290612055903390889087908790600401613059565b6020604051808303816000875af1925050508015612090575060408051601f3d908101601f1916820190925261208d9181019061308c565b60015b6120f9573d8080156120be576040519150601f19603f3d011682016040523d82523d6000602084013e6120c3565b606091505b5080516000036120f157604051633250574960e11b81526001600160a01b0385166004820152602401610950565b805181602001fd5b6001600160e01b03198116630a85bd0160e11b1461213557604051633250574960e11b81526001600160a01b0385166004820152602401610950565b5050505050565b60606000612149836125cc565b600101905060008167ffffffffffffffff81111561216957612169612b51565b6040519080825280601f01601f191660200182016040528015612193576020820181803683370190505b5090508181016020015b600019016f181899199a1a9b1b9c1cb0b131b232b360811b600a86061a8153600a850494508461219d57509392505050565b6000610859825490565b6040516001600160a01b038481166024830152838116604483015260648201839052610b2e9186918216906323b872dd90608401611d77565b60006001600160e01b03198216637965db0b60e01b1480610859575061085982611c09565b808061224b57506001600160a01b03821615155b1561230d57600061225b84611c7e565b90506001600160a01b038316158015906122875750826001600160a01b0316816001600160a01b031614155b801561229a57506122988184611804565b155b156122c35760405163a9fbf51f60e01b81526001600160a01b0384166004820152602401610950565b811561230b5783856001600160a01b0316826001600160a01b03167f8c5be1e5ebec7d5bd14f71427d1e84f3dd0314c0f7b2291e5b200ac8c7c3b92560405160405180910390a45b505b5050600090815260046020526040902080546001600160a01b0319166001600160a01b0392909216919091179055565b60006123498383611199565b6123c95760008381526006602090815260408083206001600160a01b03861684529091529020805460ff191660011790556123813390565b6001600160a01b0316826001600160a01b0316847f2f8788117e7eff1d82e926ec794901d17c78024a50270940304540a733656f0d60405160405180910390a4506001610859565b506000610859565b6000611192836001600160a01b0384166126a4565b60006123f28383611199565b156123c95760008381526006602090815260408083206001600160a01b0386168085529252808320805460ff1916905551339286917ff6391f5c32d9c69d2a47ea670b442974b53935d1edc7fd64eb21e047a839171b9190a4506001610859565b6000611192836001600160a01b0384166126eb565b600061247d6001600160a01b038416836127de565b905080516000141580156124a25750808060200190518101906124a091906130a9565b155b15610c8357604051635274afe760e01b81526001600160a01b0384166004820152602401610950565b6124d68383836127ec565b610c83576001600160a01b03831661250457604051637e27328960e01b815260048101829052602401610950565b60405163177e802f60e01b81526001600160a01b038316600482015260248101829052604401610950565b6125398282611199565b6109255760405163e2517d3f60e01b81526001600160a01b038216600482015260248101839052604401610950565b6125728383612852565b610c836000848484612013565b6000826000018281548110612596576125966130c6565b9060005260206000200154905092915050565b60085460ff16610f1f57604051638dfc202b60e01b815260040160405180910390fd5b60008072184f03e93ff9f4daa797ed6e38ed64bf6a1f0160401b831061260b5772184f03e93ff9f4daa797ed6e38ed64bf6a1f0160401b830492506040015b6d04ee2d6d415b85acef81000000008310612637576d04ee2d6d415b85acef8100000000830492506020015b662386f26fc10000831061265557662386f26fc10000830492506010015b6305f5e100831061266d576305f5e100830492506008015b612710831061268157612710830492506004015b60648310612693576064830492506002015b600a83106108595760010192915050565b60008181526001830160205260408120546123c957508154600181810184556000848152602080822090930184905584548482528286019093526040902091909155610859565b600081815260018301602052604081205480156127d457600061270f600183613046565b855490915060009061272390600190613046565b9050808214612788576000866000018281548110612743576127436130c6565b9060005260206000200154905080876000018481548110612766576127666130c6565b6000918252602080832090910192909255918252600188019052604090208390555b8554869080612799576127996130dc565b600190038181906000526020600020016000905590558560010160008681526020019081526020016000206000905560019350505050610859565b6000915050610859565b6060611192838360006128b7565b60006001600160a01b0383161580159061284a5750826001600160a01b0316846001600160a01b0316148061282657506128268484611804565b8061284a57506000828152600460205260409020546001600160a01b038481169116145b949350505050565b6001600160a01b03821661287c57604051633250574960e11b815260006004820152602401610950565b600061288a83836000611da9565b90506001600160a01b03811615610c83576040516339e3563760e11b815260006004820152602401610950565b6060814710156128dc5760405163cd78605960e01b8152306004820152602401610950565b600080856001600160a01b031684866040516128f891906130f2565b60006040518083038185875af1925050503d8060008114612935576040519150601f19603f3d011682016040523d82523d6000602084013e61293a565b606091505b509150915061294a868383612954565b9695505050505050565b60608261296957612964826129b0565b611192565b815115801561298057506001600160a01b0384163b155b156129a957604051639996b31560e01b81526001600160a01b0385166004820152602401610950565b5080611192565b8051156129c05780518082602001fd5b604051630a12f52160e11b815260040160405180910390fd5b6001600160e01b031981168114610dbe57600080fd5b600060208284031215612a0157600080fd5b8135611192816129d9565b80356001600160a01b0381168114612a2357600080fd5b919050565b600060208284031215612a3a57600080fd5b61119282612a0c565b60005b83811015612a5e578181015183820152602001612a46565b50506000910152565b60008151808452612a7f816020860160208601612a43565b601f01601f19169290920160200192915050565b6020815260006111926020830184612a67565b600060208284031215612ab857600080fd5b5035919050565b60008060408385031215612ad257600080fd5b612adb83612a0c565b946020939093013593505050565b600080600060608486031215612afe57600080fd5b612b0784612a0c565b9250612b1560208501612a0c565b9150604084013590509250925092565b60008060408385031215612b3857600080fd5b82359150612b4860208401612a0c565b90509250929050565b634e487b7160e01b600052604160045260246000fd5b600067ffffffffffffffff80841115612b8257612b82612b51565b604051601f8501601f19908116603f01168101908282118183101715612baa57612baa612b51565b81604052809350858152868686011115612bc357600080fd5b858560208301376000602087830101525050509392505050565b600060208284031215612bef57600080fd5b813567ffffffffffffffff811115612c0657600080fd5b8201601f81018413612c1757600080fd5b61284a84823560208401612b67565b60008060408385031215612c3957600080fd5b50508035926020909101359150565b8015158114610dbe57600080fd5b60008060408385031215612c6957600080fd5b612c7283612a0c565b91506020830135612c8281612c48565b809150509250929050565b60008060008060808587031215612ca357600080fd5b612cac85612a0c565b9350612cba60208601612a0c565b925060408501359150606085013567ffffffffffffffff811115612cdd57600080fd5b8501601f81018713612cee57600080fd5b612cfd87823560208401612b67565b91505092959194509250565b600080600060608486031215612d1e57600080fd5b612d2784612a0c565b9250602084013560048110612d3b57600080fd5b91506040840135612d4b81612c48565b809150509250925092565b60008060408385031215612d6957600080fd5b612d7283612a0c565b9150612b4860208401612a0c565b600181811c90821680612d9457607f821691505b602082108103612db457634e487b7160e01b600052602260045260246000fd5b50919050565b60208082526026908201527f4f6e6c7920746865206f776e65722063616e20706572666f726d20746869732060408201526530b1ba34b7b760d11b606082015260800190565b60208082526025908201527f4f6e6c7920616e2061646d696e2063616e20706572666f726d2074686973206160408201526431ba34b7b760d91b606082015260800190565b634e487b7160e01b600052601160045260246000fd5b8082018082111561085957610859612e45565b601f821115610c83576000816000526020600020601f850160051c81016020861015612e975750805b601f850160051c820191505b81811015612eb657828155600101612ea3565b505050505050565b815167ffffffffffffffff811115612ed857612ed8612b51565b612eec81612ee68454612d80565b84612e6e565b602080601f831160018114612f215760008415612f095750858301515b600019600386901b1c1916600185901b178555612eb6565b600085815260208120601f198616915b82811015612f5057888601518255948401946001909101908401612f31565b5085821015612f6e5787850151600019600388901b60f8161c191681555b5050505050600190811b01905550565b60008351612f90818460208801612a43565b835190830190612fa4818360208801612a43565b01949350505050565b634e487b7160e01b600052602160045260246000fd5b6040810160048410612fe557634e487b7160e01b600052602160045260246000fd5b92815290151560209091015290565b60006020828403121561300657600080fd5b5051919050565b808202811582820484141761085957610859612e45565b60008261304157634e487b7160e01b600052601260045260246000fd5b500490565b8181038181111561085957610859612e45565b6001600160a01b038581168252841660208201526040810183905260806060820181905260009061294a90830184612a67565b60006020828403121561309e57600080fd5b8151611192816129d9565b6000602082840312156130bb57600080fd5b815161119281612c48565b634e487b7160e01b600052603260045260246000fd5b634e487b7160e01b600052603160045260246000fd5b60008251613104818460208701612a43565b919091019291505056fed4dd364b99254967de7b77fa79c0f7835d1d5ebdb779edee0c386bda7d2cc482a2646970667358221220b6964344eb88ca0e2939cdea94e2229970f1550232e3cbc4233e8762ab475a9f64736f6c63430008190033","linkReferences":{}},"methodIdentifiers":{"DEFAULT_ADMIN_ROLE()":"a217fddf","NFT_ADMIN_ROLE()":"8fb02d99","addNewAdmin(address)":"0a1b10e1","addToWhitelist(address)":"e43252d7","approve(address,uint256)":"095ea7b3","balanceOf(address)":"70a08231","decideOnProposal(address,uint8,bool)":"d2e5a2a3","developer()":"ca4b208b","getApproved(uint256)":"081812fc","getBaseURI()":"714c5398","getRoleAdmin(bytes32)":"248a9ca3","getRoleMember(bytes32,uint256)":"9010d07c","getRoleMemberCount(bytes32)":"ca15c873","grantRole(bytes32,address)":"2f2ff15d","hasMinted(address)":"38e21cce","hasRole(bytes32,address)":"91d14854","isApprovedForAll(address,address)":"e985e9c5","name()":"06fdde03","nftPrice()":"0d39fc81","nft_counter()":"4b16ffee","ownerOf(uint256)":"6352211e","pauseContract()":"439766ce","paused()":"5c975abb","proposeAddAdmin(address)":"749511b1","proposeAddUser(address)":"41bb9eeb","proposeRemoveAdmin(address)":"cffb80c1","proposeRemoveUser(address)":"32b37e83","proposedAddAdminAddresses(address)":"2b177739","proposedAddUserAddresses(address)":"02c28f4f","proposedBy(address)":"2365eec6","proposedRemoveAddresses(address)":"c4be1f97","proposedRemoveAdminAddresses(address)":"d7ab256e","purchaseNft()":"faf6ad13","recipient()":"66d003ac","referralPercentage()":"96ea8b9c","referralRewards(address)":"53aaa63b","referrer(address)":"2cf003c2","removeAdmin(address)":"1785f53c","removeFromWhitelist(address)":"8ab1d681","renounceRole(bytes32,address)":"36568abe","revokeRole(bytes32,address)":"d547741f","safeMint(address)":"40d097c3","safeTransferFrom(address,address,uint256)":"42842e0e","safeTransferFrom(address,address,uint256,bytes)":"b88d4fde","setApprovalForAll(address,bool)":"a22cb465","setBaseURI(string)":"55f804b3","setNftPrice(uint256)":"7d9a7a4c","setRecipient(address)":"3bbed4a0","setReferralPercentage(uint256)":"a0311bd4","supportsInterface(bytes4)":"01ffc9a7","symbol()":"95d89b41","tokenURI(uint256)":"c87b56dd","transferFrom(address,address,uint256)":"23b872dd","unpauseContract()":"b33712c5","weth()":"3fc8cef3","whitelist(address)":"9b19251a","withdrawReferralRewards()":"1fb9f6fa"},"id":93}